{
  "address": "0x6D9328420ba85b275FF509655209FDd090c48514",
  "abi": [
    {
      "anonymous": false,
      "inputs": [
        {
          "indexed": true,
          "internalType": "uint256",
          "name": "sessionId",
          "type": "uint256"
        },
        {
          "indexed": true,
          "internalType": "address",
          "name": "member",
          "type": "address"
        }
      ],
      "name": "FeedbackSubmitted",
      "type": "event"
    },
    {
      "anonymous": false,
      "inputs": [
        {
          "indexed": true,
          "internalType": "uint256",
          "name": "sessionId",
          "type": "uint256"
        },
        {
          "indexed": false,
          "internalType": "uint256",
          "name": "requestId",
          "type": "uint256"
        }
      ],
      "name": "FinalizeRequested",
      "type": "event"
    },
    {
      "anonymous": false,
      "inputs": [
        {
          "indexed": true,
          "internalType": "uint256",
          "name": "sessionId",
          "type": "uint256"
        },
        {
          "indexed": false,
          "internalType": "uint32",
          "name": "totalScore",
          "type": "uint32"
        },
        {
          "indexed": false,
          "internalType": "uint256",
          "name": "feedbackCount",
          "type": "uint256"
        },
        {
          "indexed": false,
          "internalType": "uint32",
          "name": "averageScore",
          "type": "uint32"
        }
      ],
      "name": "Finalized",
      "type": "event"
    },
    {
      "anonymous": false,
      "inputs": [
        {
          "indexed": true,
          "internalType": "uint256",
          "name": "sessionId",
          "type": "uint256"
        },
        {
          "indexed": false,
          "internalType": "string",
          "name": "proposalTitle",
          "type": "string"
        },
        {
          "indexed": false,
          "internalType": "string",
          "name": "description",
          "type": "string"
        },
        {
          "indexed": false,
          "internalType": "uint64",
          "name": "startTime",
          "type": "uint64"
        },
        {
          "indexed": false,
          "internalType": "uint64",
          "name": "endTime",
          "type": "uint64"
        }
      ],
      "name": "SessionCreated",
      "type": "event"
    },
    {
      "inputs": [
        {
          "internalType": "string",
          "name": "proposalTitle",
          "type": "string"
        },
        {
          "internalType": "string",
          "name": "description",
          "type": "string"
        },
        {
          "internalType": "uint64",
          "name": "startTime",
          "type": "uint64"
        },
        {
          "internalType": "uint64",
          "name": "endTime",
          "type": "uint64"
        }
      ],
      "name": "createSession",
      "outputs": [
        {
          "internalType": "uint256",
          "name": "sessionId",
          "type": "uint256"
        }
      ],
      "stateMutability": "nonpayable",
      "type": "function"
    },
    {
      "inputs": [
        {
          "internalType": "uint256",
          "name": "sessionId",
          "type": "uint256"
        },
        {
          "internalType": "uint32",
          "name": "totalScore",
          "type": "uint32"
        },
        {
          "internalType": "uint32",
          "name": "averageScore",
          "type": "uint32"
        }
      ],
      "name": "finalizeWithResults",
      "outputs": [],
      "stateMutability": "nonpayable",
      "type": "function"
    },
    {
      "inputs": [
        {
          "internalType": "uint256",
          "name": "sessionId",
          "type": "uint256"
        }
      ],
      "name": "getEncryptedTotalScore",
      "outputs": [
        {
          "internalType": "euint32",
          "name": "",
          "type": "bytes32"
        }
      ],
      "stateMutability": "view",
      "type": "function"
    },
    {
      "inputs": [
        {
          "internalType": "uint256",
          "name": "sessionId",
          "type": "uint256"
        }
      ],
      "name": "getResults",
      "outputs": [
        {
          "internalType": "uint32",
          "name": "totalScore",
          "type": "uint32"
        },
        {
          "internalType": "uint256",
          "name": "feedbackCount",
          "type": "uint256"
        },
        {
          "internalType": "uint32",
          "name": "averageScore",
          "type": "uint32"
        }
      ],
      "stateMutability": "view",
      "type": "function"
    },
    {
      "inputs": [],
      "name": "getSessionCount",
      "outputs": [
        {
          "internalType": "uint256",
          "name": "",
          "type": "uint256"
        }
      ],
      "stateMutability": "view",
      "type": "function"
    },
    {
      "inputs": [
        {
          "internalType": "uint256",
          "name": "sessionId",
          "type": "uint256"
        }
      ],
      "name": "getSessionInfo",
      "outputs": [
        {
          "internalType": "string",
          "name": "proposalTitle",
          "type": "string"
        },
        {
          "internalType": "string",
          "name": "description",
          "type": "string"
        },
        {
          "internalType": "uint64",
          "name": "startTime",
          "type": "uint64"
        },
        {
          "internalType": "uint64",
          "name": "endTime",
          "type": "uint64"
        },
        {
          "internalType": "address",
          "name": "creator",
          "type": "address"
        },
        {
          "internalType": "bool",
          "name": "finalized",
          "type": "bool"
        },
        {
          "internalType": "uint256",
          "name": "feedbackCount",
          "type": "uint256"
        }
      ],
      "stateMutability": "view",
      "type": "function"
    },
    {
      "inputs": [
        {
          "internalType": "uint256",
          "name": "sessionId",
          "type": "uint256"
        }
      ],
      "name": "grantDecryptionAccess",
      "outputs": [],
      "stateMutability": "nonpayable",
      "type": "function"
    },
    {
      "inputs": [
        {
          "internalType": "uint256",
          "name": "sessionId",
          "type": "uint256"
        },
        {
          "internalType": "address",
          "name": "member",
          "type": "address"
        }
      ],
      "name": "hasMemberSubmitted",
      "outputs": [
        {
          "internalType": "bool",
          "name": "",
          "type": "bool"
        }
      ],
      "stateMutability": "view",
      "type": "function"
    },
    {
      "inputs": [
        {
          "internalType": "uint256",
          "name": "",
          "type": "uint256"
        },
        {
          "internalType": "address",
          "name": "",
          "type": "address"
        }
      ],
      "name": "hasSubmitted",
      "outputs": [
        {
          "internalType": "bool",
          "name": "",
          "type": "bool"
        }
      ],
      "stateMutability": "view",
      "type": "function"
    },
    {
      "inputs": [],
      "name": "protocolId",
      "outputs": [
        {
          "internalType": "uint256",
          "name": "",
          "type": "uint256"
        }
      ],
      "stateMutability": "pure",
      "type": "function"
    },
    {
      "inputs": [
        {
          "internalType": "uint256",
          "name": "sessionId",
          "type": "uint256"
        }
      ],
      "name": "requestDecryptionAccess",
      "outputs": [],
      "stateMutability": "nonpayable",
      "type": "function"
    },
    {
      "inputs": [
        {
          "internalType": "uint256",
          "name": "sessionId",
          "type": "uint256"
        },
        {
          "internalType": "externalEuint8",
          "name": "encryptedScore",
          "type": "bytes32"
        },
        {
          "internalType": "bytes",
          "name": "inputProof",
          "type": "bytes"
        }
      ],
      "name": "submitFeedback",
      "outputs": [],
      "stateMutability": "nonpayable",
      "type": "function"
    }
  ],
  "transactionHash": "0x6f08d71426d44e6ed516ac128705adf34c4def12ad2945fa9bb61321a39c98f1",
  "args": [],
  "numDeployments": 1,
  "solcInputHash": "dbf10a51672fe722c11df701ebcd623f",
  "bytecode": "0x608060405234801561001057600080fd5b5061018c6100b0604080516080810182526000808252602082018190529181018290526060810191909152506040805160808101825273687820221192c5b662b25367f70076a37bc79b6c815273848b0066793bcc60346da1f49049357399b8d595602082015273a02cda4ca3a71d7c46997716f4283aa851c2881291810191909152731364cbbf2cdf5032c47d8226a6f6fbd2afcdacac606082015290565b80517f9e7b61f58c47dc699ac88507c4f5bb9f121c03808c5676a8078fe583e464970080546001600160a01b03199081166001600160a01b039384161790915560208301517f9e7b61f58c47dc699ac88507c4f5bb9f121c03808c5676a8078fe583e46497018054831691841691909117905560408301517f9e7b61f58c47dc699ac88507c4f5bb9f121c03808c5676a8078fe583e46497028054831691841691909117905560608301517f9e7b61f58c47dc699ac88507c4f5bb9f121c03808c5676a8078fe583e46497038054909216921691909117905550565b61162f8061019b6000396000f3fe608060405234801561001057600080fd5b50600436106100b45760003560e01c80639484c18d116100715780639484c18d1461015c5780639e10acf01461016f578063a57d380614610195578063b047fb28146101d3578063d27c7362146101e6578063da1f12ab146101f957600080fd5b806333a6d7c4146100b95780633d7e6e86146100df5780635def80e3146100f45780636e6734bf1461010757806381a60c0d1461010f5780638e63a2c514610149575b600080fd5b6100cc6100c7366004610fed565b610201565b6040519081526020015b60405180910390f35b6100f26100ed36600461101f565b610249565b005b6100f2610102366004610fed565b610370565b6001546100cc565b61012261011d366004610fed565b6103d5565b6040805163ffffffff948516815260208101939093529216918101919091526060016100d6565b6100f2610157366004610fed565b610499565b6100cc61016a366004611114565b610539565b61018261017d366004610fed565b610716565b6040516100d697969594939291906111de565b6101c36101a3366004611243565b600260209081526000928352604080842090915290825290205460ff1681565b60405190151581526020016100d6565b6101c36101e1366004611243565b6108c9565b6100f26101f436600461127f565b61091a565b6127116100cc565b600081600154811061022e5760405162461bcd60e51b8152600401610225906112fe565b60405180910390fd5b60008381526020819052604090206004015491505b50919050565b82600154811061026b5760405162461bcd60e51b8152600401610225906112fe565b60008481526020819052604090206003810154600160a01b900460ff16156102c95760405162461bcd60e51b8152602060048201526011602482015270105b1c9958591e48199a5b985b1a5e9959607a1b6044820152606401610225565b60008160050154116102ed5760405162461bcd60e51b815260040161022590611327565b60068101805463ffffffff191663ffffffff868116918217909255600383018054600160a01b60ff60a01b19909116179055600583015460408051928352602083019190915291851681830152905186917f0c30bab215cb50fcfa44c939da5315732e26dbde7e284b27e18bb1e9683e0b96919081900360600190a25050505050565b8060015481106103925760405162461bcd60e51b8152600401610225906112fe565b600082815260208190526040902060058101546103c15760405162461bcd60e51b815260040161022590611327565b6103cf816004015433610bfe565b50505050565b60008060008360015481106103fc5760405162461bcd60e51b8152600401610225906112fe565b60008581526020819052604090206003810154600160a01b900460ff1661045d5760405162461bcd60e51b815260206004820152601560248201527414d95cdcda5bdb881b9bdd08199a5b985b1a5e9959605a1b6044820152606401610225565b6006810154600582015463ffffffff909116955093508361047f57600061048f565b61048f8463ffffffff871661136c565b9496939550505050565b8060015481106104bb5760405162461bcd60e51b8152600401610225906112fe565b600082815260208190526040902060058101546104ea5760405162461bcd60e51b815260040161022590611327565b6104f8816004015433610bfe565b50827f78b1c4f4a995ee0900557ab63afc39e57dcce05ef2e622329233c0a9f0f0ef5e600060405161052c91815260200190565b60405180910390a2505050565b6000808551116105795760405162461bcd60e51b815260206004820152600b60248201526a456d707479207469746c6560a81b6044820152606401610225565b826001600160401b0316826001600160401b0316116105cf5760405162461bcd60e51b8152602060048201526012602482015271496e76616c69642074696d652072616e676560701b6044820152606401610225565b42826001600160401b0316116106275760405162461bcd60e51b815260206004820152601a60248201527f456e642074696d65206d75737420626520696e206675747572650000000000006044820152606401610225565b600180549060006106378361138e565b90915550600081815260208190526040902090915080610657878261142c565b5060018101610666868261142c565b506002810180546001600160401b03858116600160401b026fffffffffffffffffffffffffffffffff199092169087161717905560038101805460ff60a01b1933166001600160a81b03199091161790556000600582015560068101805463ffffffff1916905560405182907f53706c17fcb9ad327c5040100b6dcc851493584ed055421104d928217c153e2a906107059089908990899089906114eb565b60405180910390a250949350505050565b60608060008060008060008760015481106107435760405162461bcd60e51b8152600401610225906112fe565b60008981526020819052604090206002810154600382015460058301548354849360018501936001600160401b0380831694600160401b90930416926001600160a01b03821692600160a01b90920460ff16919087906107a2906113a7565b80601f01602080910402602001604051908101604052809291908181526020018280546107ce906113a7565b801561081b5780601f106107f05761010080835404028352916020019161081b565b820191906000526020600020905b8154815290600101906020018083116107fe57829003601f168201915b5050505050965085805461082e906113a7565b80601f016020809104026020016040519081016040528092919081815260200182805461085a906113a7565b80156108a75780601f1061087c576101008083540402835291602001916108a7565b820191906000526020600020905b81548152906001019060200180831161088a57829003601f168201915b5050505050955098509850985098509850985098505050919395979092949650565b60008260015481106108ed5760405162461bcd60e51b8152600401610225906112fe565b505060009182526002602090815260408084206001600160a01b0393909316845291905290205460ff1690565b83600154811061093c5760405162461bcd60e51b8152600401610225906112fe565b600085815260208190526040902060028101546001600160401b031642101561099d5760405162461bcd60e51b815260206004820152601360248201527214d95cdcda5bdb881b9bdd081cdd185c9d1959606a1b6044820152606401610225565b6002810154600160401b90046001600160401b03164211156109f15760405162461bcd60e51b815260206004820152600d60248201526c14d95cdcda5bdb88195b991959609a1b6044820152606401610225565b6003810154600160a01b900460ff1615610a415760405162461bcd60e51b815260206004820152601160248201527014d95cdcda5bdb88199a5b985b1a5e9959607a1b6044820152606401610225565b600086815260026020908152604080832033845290915290205460ff1615610a9f5760405162461bcd60e51b8152602060048201526011602482015270105b1c9958591e481cdd589b5a5d1d1959607a1b6044820152606401610225565b6000610ae18686868080601f016020809104026020016040519081016040528093929190818152602001838380828437600092019190915250610c1392505050565b90506000610aee82610c28565b9050610afe836004015482610c35565b60048401908155600784018054600181018255600091825260209091200183905554610b2990610c67565b50610b38836004015433610bfe565b5060048301546003840154610b5691906001600160a01b0316610bfe565b50610b6082610c67565b50610b6b8233610bfe565b506003830154610b859083906001600160a01b0316610bfe565b5060008881526002602090815260408083203384529091528120805460ff1916600190811790915560058501805491929091610bc2908490611535565b9091555050604051339089907f83de3d7dce387598ce78e9f3d3d08813e1d4faf44e220b1f066d626d08ca96f290600090a35050505050505050565b6000610c0a8383610c77565b50815b92915050565b6000610c2183836002610cf4565b9392505050565b6000610c0d826004610e0b565b600082610c4957610c466000610eba565b92505b81610c5b57610c586000610eba565b91505b610c2183836000610ecd565b6000610c738230610c77565b5090565b60006000805160206115da8339815191528054604051635ca4b5b160e11b8152600481018690526001600160a01b03858116602483015292935091169063b9496b6290604401600060405180830381600087803b158015610cd757600080fd5b505af1158015610ceb573d6000803e3d6000fd5b50505050505050565b7f9e7b61f58c47dc699ac88507c4f5bb9f121c03808c5676a8078fe583e46497015460405163196d0b9b60e01b81526000916000805160206115da833981519152916001600160a01b039091169063196d0b9b90610d5c90889033908990899060040161156a565b6020604051808303816000875af1158015610d7b573d6000803e3d6000fd5b505050506040513d601f19601f82011682018060405250810190610d9f91906115ac565b8154604051630f8e573b60e21b8152600481018390523360248201529193506001600160a01b031690633e395cec90604401600060405180830381600087803b158015610deb57600080fd5b505af1158015610dff573d6000803e3d6000fd5b50505050509392505050565b7f9e7b61f58c47dc699ac88507c4f5bb9f121c03808c5676a8078fe583e4649701546040516307227b9160e21b81526000916000805160206115da833981519152916001600160a01b0390911690631c89ee4490610e6f90879087906004016115c5565b6020604051808303816000875af1158015610e8e573d6000803e3d6000fd5b505050506040513d601f19601f82011682018060405250810190610eb291906115ac565b949350505050565b6000610c0d8263ffffffff166004610f89565b6000808215610ee15750600160f81b610ee5565b5060005b60006000805160206115da833981519152600181015460405163022f65e760e31b815260048101899052602481018890526001600160f81b0319851660448201529192506001600160a01b03169063117b2f38906064016020604051808303816000875af1158015610f5b573d6000803e3d6000fd5b505050506040513d601f19601f82011682018060405250810190610f7f91906115ac565b9695505050505050565b7f9e7b61f58c47dc699ac88507c4f5bb9f121c03808c5676a8078fe583e464970154604051639cd07acb60e01b81526000916000805160206115da833981519152916001600160a01b0390911690639cd07acb90610e6f90879087906004016115c5565b600060208284031215610fff57600080fd5b5035919050565b803563ffffffff8116811461101a57600080fd5b919050565b60008060006060848603121561103457600080fd5b8335925061104460208501611006565b915061105260408501611006565b90509250925092565b634e487b7160e01b600052604160045260246000fd5b600082601f83011261108257600080fd5b81356001600160401b038082111561109c5761109c61105b565b604051601f8301601f19908116603f011681019082821181831017156110c4576110c461105b565b816040528381528660208588010111156110dd57600080fd5b836020870160208301376000602085830101528094505050505092915050565b80356001600160401b038116811461101a57600080fd5b6000806000806080858703121561112a57600080fd5b84356001600160401b038082111561114157600080fd5b61114d88838901611071565b9550602087013591508082111561116357600080fd5b5061117087828801611071565b93505061117f604086016110fd565b915061118d606086016110fd565b905092959194509250565b6000815180845260005b818110156111be576020818501810151868301820152016111a2565b506000602082860101526020601f19601f83011685010191505092915050565b60e0815260006111f160e083018a611198565b8281036020840152611203818a611198565b6001600160401b039889166040850152969097166060830152506001600160a01b0393909316608084015290151560a083015260c0909101529392505050565b6000806040838503121561125657600080fd5b8235915060208301356001600160a01b038116811461127457600080fd5b809150509250929050565b6000806000806060858703121561129557600080fd5b843593506020850135925060408501356001600160401b03808211156112ba57600080fd5b818701915087601f8301126112ce57600080fd5b8135818111156112dd57600080fd5b8860208285010111156112ef57600080fd5b95989497505060200194505050565b6020808252600f908201526e24b73b30b634b21039b2b9b9b4b7b760891b604082015260600190565b602080825260159082015274139bc819995959189858dac81cdd589b5a5d1d1959605a1b604082015260600190565b634e487b7160e01b600052601160045260246000fd5b60008261138957634e487b7160e01b600052601260045260246000fd5b500490565b6000600182016113a0576113a0611356565b5060010190565b600181811c908216806113bb57607f821691505b60208210810361024357634e487b7160e01b600052602260045260246000fd5b601f821115611427576000816000526020600020601f850160051c810160208610156114045750805b601f850160051c820191505b8181101561142357828155600101611410565b5050505b505050565b81516001600160401b038111156114455761144561105b565b6114598161145384546113a7565b846113db565b602080601f83116001811461148e57600084156114765750858301515b600019600386901b1c1916600185901b178555611423565b600085815260208120601f198616915b828110156114bd5788860151825594840194600190910190840161149e565b50858210156114db5787850151600019600388901b60f8161c191681555b5050505050600190811b01905550565b6080815260006114fe6080830187611198565b82810360208401526115108187611198565b9150506001600160401b03808516604084015280841660608401525095945050505050565b80820180821115610c0d57610c0d611356565b6054811061156657634e487b7160e01b600052602160045260246000fd5b9052565b8481526001600160a01b038416602082015260806040820181905260009061159490830185611198565b90506115a36060830184611548565b95945050505050565b6000602082840312156115be57600080fd5b5051919050565b82815260408101610c21602083018461154856fe9e7b61f58c47dc699ac88507c4f5bb9f121c03808c5676a8078fe583e4649700a2646970667358221220d3f81e5efa0168028d95ce81455e22c5f86a639bba82c83605b0bc17ecf917e364736f6c63430008180033",
  "devdoc": {
    "author": "private-pool",
    "kind": "dev",
    "methods": {
      "createSession(string,string,uint64,uint64)": {
        "params": {
          "description": "Additional description or context",
          "endTime": "Timestamp when feedback collection ends",
          "proposalTitle": "The title of the executed proposal",
          "startTime": "Timestamp when feedback collection starts"
        },
        "returns": {
          "sessionId": "The ID of the created session"
        }
      },
      "finalizeWithResults(uint256,uint32,uint32)": {
        "params": {
          "averageScore": "The calculated average score",
          "sessionId": "The ID of the session to finalize",
          "totalScore": "The decrypted total score"
        }
      },
      "getEncryptedTotalScore(uint256)": {
        "params": {
          "sessionId": "The ID of the session"
        },
        "returns": {
          "_0": "The encrypted total score"
        }
      },
      "getResults(uint256)": {
        "params": {
          "sessionId": "The ID of the session"
        },
        "returns": {
          "averageScore": "The calculated average score",
          "feedbackCount": "The number of feedback submissions",
          "totalScore": "The total sum of all scores"
        }
      },
      "getSessionCount()": {
        "returns": {
          "_0": "The number of sessions created"
        }
      },
      "getSessionInfo(uint256)": {
        "params": {
          "sessionId": "The ID of the session"
        },
        "returns": {
          "creator": "Address of the session creator",
          "description": "The session description",
          "endTime": "Session end timestamp",
          "feedbackCount": "Number of feedback submissions",
          "finalized": "Whether the session has been finalized",
          "proposalTitle": "The proposal title",
          "startTime": "Session start timestamp"
        }
      },
      "grantDecryptionAccess(uint256)": {
        "params": {
          "sessionId": "The ID of the session"
        }
      },
      "hasMemberSubmitted(uint256,address)": {
        "params": {
          "member": "The address of the member",
          "sessionId": "The ID of the session"
        },
        "returns": {
          "_0": "Whether the member has submitted feedback"
        }
      },
      "requestDecryptionAccess(uint256)": {
        "details": "Anyone can grant themselves decryption access once feedback has been submitted",
        "params": {
          "sessionId": "The ID of the session to grant decryption access"
        }
      },
      "submitFeedback(uint256,bytes32,bytes)": {
        "params": {
          "encryptedScore": "The encrypted satisfaction score (must be between 1-10)",
          "inputProof": "The input proof for encrypted value",
          "sessionId": "The ID of the feedback session"
        }
      }
    },
    "title": "Encrypted Governance Feedback",
    "version": 1
  },
  "userdoc": {
    "kind": "user",
    "methods": {
      "createSession(string,string,uint64,uint64)": {
        "notice": "Create a new feedback session"
      },
      "finalizeWithResults(uint256,uint32,uint32)": {
        "notice": "Finalize session with decrypted results (for client-side decryption)"
      },
      "getEncryptedTotalScore(uint256)": {
        "notice": "Get the encrypted total score (only accessible to authorized users)"
      },
      "getResults(uint256)": {
        "notice": "Get decrypted results after finalization"
      },
      "getSessionCount()": {
        "notice": "Get the total number of feedback sessions"
      },
      "getSessionInfo(uint256)": {
        "notice": "Get basic information about a feedback session"
      },
      "grantDecryptionAccess(uint256)": {
        "notice": "Request decryption access for encrypted total score"
      },
      "hasMemberSubmitted(uint256,address)": {
        "notice": "Check if a member has submitted feedback for a session"
      },
      "requestDecryptionAccess(uint256)": {
        "notice": "Allow decryption permissions for the feedback session"
      },
      "submitFeedback(uint256,bytes32,bytes)": {
        "notice": "Submit encrypted satisfaction score (1-10)"
      }
    },
    "notice": "Collect encrypted satisfaction scores (1-10) from DAO members after proposal execution",
    "version": 1
  },
  "storageLayout": {
    "storage": [
      {
        "astId": 39066,
        "contract": "contracts/GovernanceFeedback.sol:GovernanceFeedback",
        "label": "_sessions",
        "offset": 0,
        "slot": "0",
        "type": "t_mapping(t_uint256,t_struct(FeedbackSession)39061_storage)"
      },
      {
        "astId": 39068,
        "contract": "contracts/GovernanceFeedback.sol:GovernanceFeedback",
        "label": "_sessionCount",
        "offset": 0,
        "slot": "1",
        "type": "t_uint256"
      },
      {
        "astId": 39074,
        "contract": "contracts/GovernanceFeedback.sol:GovernanceFeedback",
        "label": "hasSubmitted",
        "offset": 0,
        "slot": "2",
        "type": "t_mapping(t_uint256,t_mapping(t_address,t_bool))"
      }
    ],
    "types": {
      "t_address": {
        "encoding": "inplace",
        "label": "address",
        "numberOfBytes": "20"
      },
      "t_array(t_userDefinedValueType(euint8)39676)dyn_storage": {
        "base": "t_userDefinedValueType(euint8)39676",
        "encoding": "dynamic_array",
        "label": "euint8[]",
        "numberOfBytes": "32"
      },
      "t_bool": {
        "encoding": "inplace",
        "label": "bool",
        "numberOfBytes": "1"
      },
      "t_mapping(t_address,t_bool)": {
        "encoding": "mapping",
        "key": "t_address",
        "label": "mapping(address => bool)",
        "numberOfBytes": "32",
        "value": "t_bool"
      },
      "t_mapping(t_uint256,t_mapping(t_address,t_bool))": {
        "encoding": "mapping",
        "key": "t_uint256",
        "label": "mapping(uint256 => mapping(address => bool))",
        "numberOfBytes": "32",
        "value": "t_mapping(t_address,t_bool)"
      },
      "t_mapping(t_uint256,t_struct(FeedbackSession)39061_storage)": {
        "encoding": "mapping",
        "key": "t_uint256",
        "label": "mapping(uint256 => struct GovernanceFeedback.FeedbackSession)",
        "numberOfBytes": "32",
        "value": "t_struct(FeedbackSession)39061_storage"
      },
      "t_string_storage": {
        "encoding": "bytes",
        "label": "string",
        "numberOfBytes": "32"
      },
      "t_struct(FeedbackSession)39061_storage": {
        "encoding": "inplace",
        "label": "struct GovernanceFeedback.FeedbackSession",
        "members": [
          {
            "astId": 39039,
            "contract": "contracts/GovernanceFeedback.sol:GovernanceFeedback",
            "label": "proposalTitle",
            "offset": 0,
            "slot": "0",
            "type": "t_string_storage"
          },
          {
            "astId": 39041,
            "contract": "contracts/GovernanceFeedback.sol:GovernanceFeedback",
            "label": "description",
            "offset": 0,
            "slot": "1",
            "type": "t_string_storage"
          },
          {
            "astId": 39043,
            "contract": "contracts/GovernanceFeedback.sol:GovernanceFeedback",
            "label": "startTime",
            "offset": 0,
            "slot": "2",
            "type": "t_uint64"
          },
          {
            "astId": 39045,
            "contract": "contracts/GovernanceFeedback.sol:GovernanceFeedback",
            "label": "endTime",
            "offset": 8,
            "slot": "2",
            "type": "t_uint64"
          },
          {
            "astId": 39047,
            "contract": "contracts/GovernanceFeedback.sol:GovernanceFeedback",
            "label": "creator",
            "offset": 0,
            "slot": "3",
            "type": "t_address"
          },
          {
            "astId": 39049,
            "contract": "contracts/GovernanceFeedback.sol:GovernanceFeedback",
            "label": "finalized",
            "offset": 20,
            "slot": "3",
            "type": "t_bool"
          },
          {
            "astId": 39052,
            "contract": "contracts/GovernanceFeedback.sol:GovernanceFeedback",
            "label": "totalScore",
            "offset": 0,
            "slot": "4",
            "type": "t_userDefinedValueType(euint32)39682"
          },
          {
            "astId": 39054,
            "contract": "contracts/GovernanceFeedback.sol:GovernanceFeedback",
            "label": "feedbackCount",
            "offset": 0,
            "slot": "5",
            "type": "t_uint256"
          },
          {
            "astId": 39056,
            "contract": "contracts/GovernanceFeedback.sol:GovernanceFeedback",
            "label": "decryptedTotalScore",
            "offset": 0,
            "slot": "6",
            "type": "t_uint32"
          },
          {
            "astId": 39060,
            "contract": "contracts/GovernanceFeedback.sol:GovernanceFeedback",
            "label": "allScores",
            "offset": 0,
            "slot": "7",
            "type": "t_array(t_userDefinedValueType(euint8)39676)dyn_storage"
          }
        ],
        "numberOfBytes": "256"
      },
      "t_uint256": {
        "encoding": "inplace",
        "label": "uint256",
        "numberOfBytes": "32"
      },
      "t_uint32": {
        "encoding": "inplace",
        "label": "uint32",
        "numberOfBytes": "4"
      },
      "t_uint64": {
        "encoding": "inplace",
        "label": "uint64",
        "numberOfBytes": "8"
      },
      "t_userDefinedValueType(euint32)39682": {
        "encoding": "inplace",
        "label": "euint32",
        "numberOfBytes": "32"
      },
      "t_userDefinedValueType(euint8)39676": {
        "encoding": "inplace",
        "label": "euint8",
        "numberOfBytes": "32"
      }
    }
  }
}